{
  "_format": "hh-sol-artifact-1",
  "contractName": "MyEpicNFT",
  "sourceName": "contracts/MyEpicNFT.sol",
  "abi": [
    {
      "inputs": [],
      "stateMutability": "nonpayable",
      "type": "constructor"
    },
    {
      "anonymous": false,
      "inputs": [
        {
          "indexed": true,
          "internalType": "address",
          "name": "owner",
          "type": "address"
        },
        {
          "indexed": true,
          "internalType": "address",
          "name": "approved",
          "type": "address"
        },
        {
          "indexed": true,
          "internalType": "uint256",
          "name": "tokenId",
          "type": "uint256"
        }
      ],
      "name": "Approval",
      "type": "event"
    },
    {
      "anonymous": false,
      "inputs": [
        {
          "indexed": true,
          "internalType": "address",
          "name": "owner",
          "type": "address"
        },
        {
          "indexed": true,
          "internalType": "address",
          "name": "operator",
          "type": "address"
        },
        {
          "indexed": false,
          "internalType": "bool",
          "name": "approved",
          "type": "bool"
        }
      ],
      "name": "ApprovalForAll",
      "type": "event"
    },
    {
      "anonymous": false,
      "inputs": [
        {
          "indexed": false,
          "internalType": "address",
          "name": "sender",
          "type": "address"
        },
        {
          "indexed": false,
          "internalType": "uint256",
          "name": "tokenId",
          "type": "uint256"
        }
      ],
      "name": "NewEpicNFTMinted",
      "type": "event"
    },
    {
      "anonymous": false,
      "inputs": [
        {
          "indexed": true,
          "internalType": "address",
          "name": "from",
          "type": "address"
        },
        {
          "indexed": true,
          "internalType": "address",
          "name": "to",
          "type": "address"
        },
        {
          "indexed": true,
          "internalType": "uint256",
          "name": "tokenId",
          "type": "uint256"
        }
      ],
      "name": "Transfer",
      "type": "event"
    },
    {
      "inputs": [
        {
          "internalType": "address",
          "name": "to",
          "type": "address"
        },
        {
          "internalType": "uint256",
          "name": "tokenId",
          "type": "uint256"
        }
      ],
      "name": "approve",
      "outputs": [],
      "stateMutability": "nonpayable",
      "type": "function"
    },
    {
      "inputs": [
        {
          "internalType": "address",
          "name": "owner",
          "type": "address"
        }
      ],
      "name": "balanceOf",
      "outputs": [
        {
          "internalType": "uint256",
          "name": "",
          "type": "uint256"
        }
      ],
      "stateMutability": "view",
      "type": "function"
    },
    {
      "inputs": [
        {
          "internalType": "uint256",
          "name": "tokenId",
          "type": "uint256"
        }
      ],
      "name": "getApproved",
      "outputs": [
        {
          "internalType": "address",
          "name": "",
          "type": "address"
        }
      ],
      "stateMutability": "view",
      "type": "function"
    },
    {
      "inputs": [],
      "name": "getLastTokenId",
      "outputs": [
        {
          "internalType": "uint256",
          "name": "",
          "type": "uint256"
        }
      ],
      "stateMutability": "view",
      "type": "function"
    },
    {
      "inputs": [
        {
          "internalType": "address",
          "name": "owner",
          "type": "address"
        },
        {
          "internalType": "address",
          "name": "operator",
          "type": "address"
        }
      ],
      "name": "isApprovedForAll",
      "outputs": [
        {
          "internalType": "bool",
          "name": "",
          "type": "bool"
        }
      ],
      "stateMutability": "view",
      "type": "function"
    },
    {
      "inputs": [],
      "name": "makeAnEpicNFT",
      "outputs": [],
      "stateMutability": "nonpayable",
      "type": "function"
    },
    {
      "inputs": [],
      "name": "name",
      "outputs": [
        {
          "internalType": "string",
          "name": "",
          "type": "string"
        }
      ],
      "stateMutability": "view",
      "type": "function"
    },
    {
      "inputs": [
        {
          "internalType": "uint256",
          "name": "tokenId",
          "type": "uint256"
        }
      ],
      "name": "ownerOf",
      "outputs": [
        {
          "internalType": "address",
          "name": "",
          "type": "address"
        }
      ],
      "stateMutability": "view",
      "type": "function"
    },
    {
      "inputs": [
        {
          "internalType": "uint256",
          "name": "tokenId",
          "type": "uint256"
        }
      ],
      "name": "pickRandomFirstWord",
      "outputs": [
        {
          "internalType": "string",
          "name": "",
          "type": "string"
        }
      ],
      "stateMutability": "view",
      "type": "function"
    },
    {
      "inputs": [
        {
          "internalType": "uint256",
          "name": "tokenId",
          "type": "uint256"
        }
      ],
      "name": "pickRandomSecondWord",
      "outputs": [
        {
          "internalType": "string",
          "name": "",
          "type": "string"
        }
      ],
      "stateMutability": "view",
      "type": "function"
    },
    {
      "inputs": [
        {
          "internalType": "uint256",
          "name": "tokenId",
          "type": "uint256"
        }
      ],
      "name": "pickRandomThirdWord",
      "outputs": [
        {
          "internalType": "string",
          "name": "",
          "type": "string"
        }
      ],
      "stateMutability": "view",
      "type": "function"
    },
    {
      "inputs": [
        {
          "internalType": "address",
          "name": "from",
          "type": "address"
        },
        {
          "internalType": "address",
          "name": "to",
          "type": "address"
        },
        {
          "internalType": "uint256",
          "name": "tokenId",
          "type": "uint256"
        }
      ],
      "name": "safeTransferFrom",
      "outputs": [],
      "stateMutability": "nonpayable",
      "type": "function"
    },
    {
      "inputs": [
        {
          "internalType": "address",
          "name": "from",
          "type": "address"
        },
        {
          "internalType": "address",
          "name": "to",
          "type": "address"
        },
        {
          "internalType": "uint256",
          "name": "tokenId",
          "type": "uint256"
        },
        {
          "internalType": "bytes",
          "name": "_data",
          "type": "bytes"
        }
      ],
      "name": "safeTransferFrom",
      "outputs": [],
      "stateMutability": "nonpayable",
      "type": "function"
    },
    {
      "inputs": [
        {
          "internalType": "address",
          "name": "operator",
          "type": "address"
        },
        {
          "internalType": "bool",
          "name": "approved",
          "type": "bool"
        }
      ],
      "name": "setApprovalForAll",
      "outputs": [],
      "stateMutability": "nonpayable",
      "type": "function"
    },
    {
      "inputs": [
        {
          "internalType": "bytes4",
          "name": "interfaceId",
          "type": "bytes4"
        }
      ],
      "name": "supportsInterface",
      "outputs": [
        {
          "internalType": "bool",
          "name": "",
          "type": "bool"
        }
      ],
      "stateMutability": "view",
      "type": "function"
    },
    {
      "inputs": [],
      "name": "symbol",
      "outputs": [
        {
          "internalType": "string",
          "name": "",
          "type": "string"
        }
      ],
      "stateMutability": "view",
      "type": "function"
    },
    {
      "inputs": [
        {
          "internalType": "uint256",
          "name": "tokenId",
          "type": "uint256"
        }
      ],
      "name": "tokenURI",
      "outputs": [
        {
          "internalType": "string",
          "name": "",
          "type": "string"
        }
      ],
      "stateMutability": "view",
      "type": "function"
    },
    {
      "inputs": [
        {
          "internalType": "address",
          "name": "from",
          "type": "address"
        },
        {
          "internalType": "address",
          "name": "to",
          "type": "address"
        },
        {
          "internalType": "uint256",
          "name": "tokenId",
          "type": "uint256"
        }
      ],
      "name": "transferFrom",
      "outputs": [],
      "stateMutability": "nonpayable",
      "type": "function"
    }
  ],
  "bytecode": "0x608060405260405180610160016040528061012f8152602001620046e561012f913960089080519060200190620000389291906200076b565b506040518061016001604052806040518060400160405280601181526020017fe7899be4b8bce38186e381a9e38293202d00000000000000000000000000000081525081526020016040518060400160405280600881526020017fe3818be38191202d00000000000000000000000000000000000000000000000081525081526020016040518060400160405280600b81526020017fe3818de381a4e381ad202d00000000000000000000000000000000000000000081525081526020016040518060400160405280601481526020017fe6b8a9e78e89e381b6e381a3e3818be38191202d00000000000000000000000081525081526020016040518060400160405280601781526020017fe3818ae3828de38197e381b6e381a3e3818be38191202d00000000000000000081525081526020016040518060400160405280601d81526020017fe7899be88289e3818ae3828de38197e381b6e381a3e3818be38191202d00000081525081526020016040518060400160405280601a81526020017fe7899be88289e6b8a9e78e89e381b6e381a3e3818be38191202d00000000000081525081526020016040518060400160405280601481526020017fe382abe383ace383bce38186e381a9e38293202d00000000000000000000000081525081526020016040518060400160405280600b81526020017fe3818be381bee78e89202d00000000000000000000000000000000000000000081525081526020016040518060400160405280601a81526020017fe6988ee5a4aae5ad90e3818ae3828de38197e986a4e6b2b9202d00000000000081525081526020016040518060400160405280601481526020017fe3828fe3818be38281e38186e381a9e38293202d000000000000000000000000815250815250600990600b620002de929190620007fc565b5060405180608001604052806040518060400160405280600581526020017fe5b08f202d00000000000000000000000000000000000000000000000000000081525081526020016040518060400160405280600581526020017fe4b8ad202d00000000000000000000000000000000000000000000000000000081525081526020016040518060400160405280600581526020017fe5a4a7202d00000000000000000000000000000000000000000000000000000081525081526020016040518060400160405280600881526020017fe784a1e38197202d000000000000000000000000000000000000000000000000815250815250600a906004620003e692919062000863565b506040518060e001604052806040518060400160405280600981526020017fe383a9e382a4e382b9000000000000000000000000000000000000000000000081525081526020016040518060400160405280600681526020017fe381ade3818e000000000000000000000000000000000000000000000000000081525081526020016040518060400160405280600981526020017fe6b5b7e88081e5a4a9000000000000000000000000000000000000000000000081525081526020016040518060400160405280601281526020017fe9878ee88f9ce3818be3818de68f9ae38192000000000000000000000000000081525081526020016040518060400160405280600981526020017fe381a8e3828ae5a4a9000000000000000000000000000000000000000000000081525081526020016040518060400160405280600f81526020017fe58d8ae7869fe3819fe381bee38194000000000000000000000000000000000081525081526020016040518060400160405280600681526020017fe381ade3818e0000000000000000000000000000000000000000000000000000815250815250600b9060076200059f929190620008ca565b50348015620005ad57600080fd5b506040518060400160405280600981526020017f5371756172654e465400000000000000000000000000000000000000000000008152506040518060400160405280600681526020017f53515541524500000000000000000000000000000000000000000000000000008152508160009080519060200190620006329291906200076b565b5080600190805190602001906200064b9291906200076b565b505050620006996040518060400160405280601881526020017f54686973206973206d79204e465420636f6e74726163742e00000000000000008152506200069f60201b620012001760201c565b62000aeb565b6200073f81604051602401620006b69190620009ff565b6040516020818303038152906040527f41304fac000000000000000000000000000000000000000000000000000000007bffffffffffffffffffffffffffffffffffffffffffffffffffffffff19166020820180517bffffffffffffffffffffffffffffffffffffffffffffffffffffffff83818316178352505050506200074260201b60201c565b50565b60008151905060006a636f6e736f6c652e6c6f679050602083016000808483855afa5050505050565b828054620007799062000a75565b90600052602060002090601f0160209004810192826200079d5760008555620007e9565b82601f10620007b857805160ff1916838001178555620007e9565b82800160010185558215620007e9579182015b82811115620007e8578251825591602001919060010190620007cb565b5b509050620007f8919062000931565b5090565b82805482825590600052602060002090810192821562000850579160200282015b828111156200084f5782518290805190602001906200083e9291906200076b565b50916020019190600101906200081d565b5b5090506200085f919062000950565b5090565b828054828255906000526020600020908101928215620008b7579160200282015b82811115620008b6578251829080519060200190620008a59291906200076b565b509160200191906001019062000884565b5b509050620008c6919062000950565b5090565b8280548282559060005260206000209081019282156200091e579160200282015b828111156200091d5782518290805190602001906200090c9291906200076b565b5091602001919060010190620008eb565b5b5090506200092d919062000950565b5090565b5b808211156200094c57600081600090555060010162000932565b5090565b5b808211156200097457600081816200096a919062000978565b5060010162000951565b5090565b508054620009869062000a75565b6000825580601f106200099a5750620009bb565b601f016020900490600052602060002090810190620009ba919062000931565b5b50565b6000620009cb8262000a23565b620009d7818562000a2e565b9350620009e981856020860162000a3f565b620009f48162000ada565b840191505092915050565b6000602082019050818103600083015262000a1b8184620009be565b905092915050565b600081519050919050565b600082825260208201905092915050565b60005b8381101562000a5f57808201518184015260208101905062000a42565b8381111562000a6f576000848401525b50505050565b6000600282049050600182168062000a8e57607f821691505b6020821081141562000aa55762000aa462000aab565b5b50919050565b7f4e487b7100000000000000000000000000000000000000000000000000000000600052602260045260246000fd5b6000601f19601f8301169050919050565b613bea8062000afb6000396000f3fe608060405234801561001057600080fd5b50600436106101165760003560e01c806383c4c00d116100a2578063b88d4fde11610071578063b88d4fde14610305578063c575757a14610321578063c87b56dd14610351578063de9d132f14610381578063e985e9c51461038b57610116565b806383c4c00d1461027d57806395d89b411461029b578063a22cb465146102b9578063b187301f146102d557610116565b806323b872dd116100e957806323b872dd146101b55780632de38d68146101d157806342842e0e146102015780636352211e1461021d57806370a082311461024d57610116565b806301ffc9a71461011b57806306fdde031461014b578063081812fc14610169578063095ea7b314610199575b600080fd5b610135600480360381019061013091906126c8565b6103bb565b6040516101429190612dd2565b60405180910390f35b61015361049d565b6040516101609190612ded565b60405180910390f35b610183600480360381019061017e919061271a565b61052f565b6040516101909190612d42565b60405180910390f35b6101b360048036038101906101ae919061268c565b6105b4565b005b6101cf60048036038101906101ca9190612586565b6106cc565b005b6101eb60048036038101906101e6919061271a565b61072c565b6040516101f89190612ded565b60405180910390f35b61021b60048036038101906102169190612586565b6108c8565b005b6102376004803603810190610232919061271a565b6108e8565b6040516102449190612d42565b60405180910390f35b61026760048036038101906102629190612521565b61099a565b604051610274919061307d565b60405180910390f35b610285610a52565b604051610292919061307d565b60405180910390f35b6102a3610a68565b6040516102b09190612ded565b60405180910390f35b6102d360048036038101906102ce9190612650565b610afa565b005b6102ef60048036038101906102ea919061271a565b610b10565b6040516102fc9190612ded565b60405180910390f35b61031f600480360381019061031a91906125d5565b610c2e565b005b61033b6004803603810190610336919061271a565b610c90565b6040516103489190612ded565b60405180910390f35b61036b6004803603810190610366919061271a565b610dae565b6040516103789190612ded565b60405180910390f35b610389610f00565b005b6103a560048036038101906103a0919061254a565b61116c565b6040516103b29190612dd2565b60405180910390f35b60007f80ac58cd000000000000000000000000000000000000000000000000000000007bffffffffffffffffffffffffffffffffffffffffffffffffffffffff1916827bffffffffffffffffffffffffffffffffffffffffffffffffffffffff1916148061048657507f5b5e139f000000000000000000000000000000000000000000000000000000007bffffffffffffffffffffffffffffffffffffffffffffffffffffffff1916827bffffffffffffffffffffffffffffffffffffffffffffffffffffffff1916145b80610496575061049582611299565b5b9050919050565b6060600080546104ac90613311565b80601f01602080910402602001604051908101604052809291908181526020018280546104d890613311565b80156105255780601f106104fa57610100808354040283529160200191610525565b820191906000526020600020905b81548152906001019060200180831161050857829003601f168201915b5050505050905090565b600061053a82611303565b610579576040517f08c379a000000000000000000000000000000000000000000000000000000000815260040161057090612ffd565b60405180910390fd5b6004600083815260200190815260200160002060009054906101000a900473ffffffffffffffffffffffffffffffffffffffff169050919050565b60006105bf826108e8565b90508073ffffffffffffffffffffffffffffffffffffffff168373ffffffffffffffffffffffffffffffffffffffff161415610630576040517f08c379a00000000000000000000000000000000000000000000000000000000081526004016106279061303d565b60405180910390fd5b8073ffffffffffffffffffffffffffffffffffffffff1661064f61136f565b73ffffffffffffffffffffffffffffffffffffffff16148061067e575061067d8161067861136f565b61116c565b5b6106bd576040517f08c379a00000000000000000000000000000000000000000000000000000000081526004016106b490612f3d565b60405180910390fd5b6106c78383611377565b505050565b6106dd6106d761136f565b82611430565b61071c576040517f08c379a00000000000000000000000000000000000000000000000000000000081526004016107139061305d565b60405180910390fd5b61072783838361150e565b505050565b6060600061076061073c84611775565b60405160200161074c9190612cfe565b604051602081830303815290604052611922565b90506107a16040518060400160405280600d81526020017f72616e64202d20736565643a200000000000000000000000000000000000000081525082611955565b600980549050816107b291906133bd565b90506107f36040518060400160405280601381526020017f72616e64202d20666972737420776f72643a200000000000000000000000000081525082611955565b6009818154811061082d577f4e487b7100000000000000000000000000000000000000000000000000000000600052603260045260246000fd5b90600052602060002001805461084290613311565b80601f016020809104026020016040519081016040528092919081815260200182805461086e90613311565b80156108bb5780601f10610890576101008083540402835291602001916108bb565b820191906000526020600020905b81548152906001019060200180831161089e57829003601f168201915b5050505050915050919050565b6108e383838360405180602001604052806000815250610c2e565b505050565b6000806002600084815260200190815260200160002060009054906101000a900473ffffffffffffffffffffffffffffffffffffffff169050600073ffffffffffffffffffffffffffffffffffffffff168173ffffffffffffffffffffffffffffffffffffffff161415610991576040517f08c379a000000000000000000000000000000000000000000000000000000000815260040161098890612f7d565b60405180910390fd5b80915050919050565b60008073ffffffffffffffffffffffffffffffffffffffff168273ffffffffffffffffffffffffffffffffffffffff161415610a0b576040517f08c379a0000000000000000000000000000000000000000000000000000000008152600401610a0290612f5d565b60405180910390fd5b600360008373ffffffffffffffffffffffffffffffffffffffff1673ffffffffffffffffffffffffffffffffffffffff168152602001908152602001600020549050919050565b600080610a5f60076119f1565b90508091505090565b606060018054610a7790613311565b80601f0160208091040260200160405190810160405280929190818152602001828054610aa390613311565b8015610af05780601f10610ac557610100808354040283529160200191610af0565b820191906000526020600020905b815481529060010190602001808311610ad357829003601f168201915b5050505050905090565b610b0c610b0561136f565b83836119ff565b5050565b60606000610b44610b2084611775565b604051602001610b309190612c97565b604051602081830303815290604052611922565b9050600a8054905081610b5791906133bd565b9050600a8181548110610b93577f4e487b7100000000000000000000000000000000000000000000000000000000600052603260045260246000fd5b906000526020600020018054610ba890613311565b80601f0160208091040260200160405190810160405280929190818152602001828054610bd490613311565b8015610c215780601f10610bf657610100808354040283529160200191610c21565b820191906000526020600020905b815481529060010190602001808311610c0457829003601f168201915b5050505050915050919050565b610c3f610c3961136f565b83611430565b610c7e576040517f08c379a0000000000000000000000000000000000000000000000000000000008152600401610c759061305d565b60405180910390fd5b610c8a84848484611b6c565b50505050565b60606000610cc4610ca084611775565b604051602001610cb09190612c75565b604051602081830303815290604052611922565b9050600b8054905081610cd791906133bd565b9050600b8181548110610d13577f4e487b7100000000000000000000000000000000000000000000000000000000600052603260045260246000fd5b906000526020600020018054610d2890613311565b80601f0160208091040260200160405190810160405280929190818152602001828054610d5490613311565b8015610da15780601f10610d7657610100808354040283529160200191610da1565b820191906000526020600020905b815481529060010190602001808311610d8457829003601f168201915b5050505050915050919050565b6060610db982611303565b610df8576040517f08c379a0000000000000000000000000000000000000000000000000000000008152600401610def90612fdd565b60405180910390fd5b6000600660008481526020019081526020016000208054610e1890613311565b80601f0160208091040260200160405190810160405280929190818152602001828054610e4490613311565b8015610e915780601f10610e6657610100808354040283529160200191610e91565b820191906000526020600020905b815481529060010190602001808311610e7457829003601f168201915b505050505090506000610ea2611bc8565b9050600081511415610eb8578192505050610efb565b600082511115610eed578082604051602001610ed5929190612bf1565b60405160208183030381529060405292505050610efb565b610ef684611bdf565b925050505b919050565b6000610f0c60076119f1565b90506000610f198261072c565b90506000610f2683610b10565b90506000610f3384610c90565b90506000838383604051602001610f4c93929190612c15565b60405160208183030381529060405290506000600882604051602001610f73929190612c46565b6040516020818303038152906040529050610fc26040518060400160405280601581526020017f0a2d2d2d2d2d205356472064617461202d2d2d2d2d0000000000000000000000815250611200565b610fcb81611200565b6110096040518060400160405280601581526020017f2d2d2d2d2d2d2d2d2d2d2d2d2d2d2d2d2d2d2d2d0a0000000000000000000000815250611200565b600061103d8361101884611c86565b604051602001611029929190612cb9565b604051602081830303815290604052611c86565b90506000816040516020016110529190612d20565b60405160208183030381529060405290506110a16040518060400160405280601581526020017f0a2d2d2d2d2d20546f6b656e20555249202d2d2d2d0000000000000000000000815250611200565b6110aa81611200565b6110e86040518060400160405280601581526020017f2d2d2d2d2d2d2d2d2d2d2d2d2d2d2d2d2d2d2d2d0a0000000000000000000000815250611200565b6110f23389611e44565b6110fc8882611e62565b61111f604051806060016040528060258152602001613b50602591398933611ed6565b6111296007611f75565b7febb98688741ffa4c7589bf325de30cf7becb63de567842e1ccdb6cb949fdc82c338960405161115a929190612da9565b60405180910390a15050505050505050565b6000600560008473ffffffffffffffffffffffffffffffffffffffff1673ffffffffffffffffffffffffffffffffffffffff16815260200190815260200160002060008373ffffffffffffffffffffffffffffffffffffffff1673ffffffffffffffffffffffffffffffffffffffff16815260200190815260200160002060009054906101000a900460ff16905092915050565b611296816040516024016112149190612ded565b6040516020818303038152906040527f41304fac000000000000000000000000000000000000000000000000000000007bffffffffffffffffffffffffffffffffffffffffffffffffffffffff19166020820180517bffffffffffffffffffffffffffffffffffffffffffffffffffffffff8381831617835250505050611f8b565b50565b60007f01ffc9a7000000000000000000000000000000000000000000000000000000007bffffffffffffffffffffffffffffffffffffffffffffffffffffffff1916827bffffffffffffffffffffffffffffffffffffffffffffffffffffffff1916149050919050565b60008073ffffffffffffffffffffffffffffffffffffffff166002600084815260200190815260200160002060009054906101000a900473ffffffffffffffffffffffffffffffffffffffff1673ffffffffffffffffffffffffffffffffffffffff1614159050919050565b600033905090565b816004600083815260200190815260200160002060006101000a81548173ffffffffffffffffffffffffffffffffffffffff021916908373ffffffffffffffffffffffffffffffffffffffff160217905550808273ffffffffffffffffffffffffffffffffffffffff166113ea836108e8565b73ffffffffffffffffffffffffffffffffffffffff167f8c5be1e5ebec7d5bd14f71427d1e84f3dd0314c0f7b2291e5b200ac8c7c3b92560405160405180910390a45050565b600061143b82611303565b61147a576040517f08c379a000000000000000000000000000000000000000000000000000000000815260040161147190612f1d565b60405180910390fd5b6000611485836108e8565b90508073ffffffffffffffffffffffffffffffffffffffff168473ffffffffffffffffffffffffffffffffffffffff1614806114f457508373ffffffffffffffffffffffffffffffffffffffff166114dc8461052f565b73ffffffffffffffffffffffffffffffffffffffff16145b806115055750611504818561116c565b5b91505092915050565b8273ffffffffffffffffffffffffffffffffffffffff1661152e826108e8565b73ffffffffffffffffffffffffffffffffffffffff1614611584576040517f08c379a000000000000000000000000000000000000000000000000000000000815260040161157b90612e9d565b60405180910390fd5b600073ffffffffffffffffffffffffffffffffffffffff168273ffffffffffffffffffffffffffffffffffffffff1614156115f4576040517f08c379a00000000000000000000000000000000000000000000000000000000081526004016115eb90612edd565b60405180910390fd5b6115ff838383611fb4565b61160a600082611377565b6001600360008573ffffffffffffffffffffffffffffffffffffffff1673ffffffffffffffffffffffffffffffffffffffff168152602001908152602001600020600082825461165a9190613227565b925050819055506001600360008473ffffffffffffffffffffffffffffffffffffffff1673ffffffffffffffffffffffffffffffffffffffff16815260200190815260200160002060008282546116b19190613146565b92505081905550816002600083815260200190815260200160002060006101000a81548173ffffffffffffffffffffffffffffffffffffffff021916908373ffffffffffffffffffffffffffffffffffffffff160217905550808273ffffffffffffffffffffffffffffffffffffffff168473ffffffffffffffffffffffffffffffffffffffff167fddf252ad1be2c89b69c2b068fc378daa952ba7f163c4a11628f55a4df523b3ef60405160405180910390a4611770838383611fb9565b505050565b606060008214156117bd576040518060400160405280600181526020017f3000000000000000000000000000000000000000000000000000000000000000815250905061191d565b600082905060005b600082146117ef5780806117d890613374565b915050600a826117e8919061319c565b91506117c5565b60008167ffffffffffffffff811115611831577f4e487b7100000000000000000000000000000000000000000000000000000000600052604160045260246000fd5b6040519080825280601f01601f1916602001820160405280156118635781602001600182028036833780820191505090505b5090505b600085146119165760018261187c9190613227565b9150600a8561188b91906133bd565b60306118979190613146565b60f81b8183815181106118d3577f4e487b7100000000000000000000000000000000000000000000000000000000600052603260045260246000fd5b60200101907effffffffffffffffffffffffffffffffffffffffffffffffffffffffffffff1916908160001a905350600a8561190f919061319c565b9450611867565b8093505050505b919050565b6000816040516020016119359190612bda565b6040516020818303038152906040528051906020012060001c9050919050565b6119ed828260405160240161196b929190612e0f565b6040516020818303038152906040527f9710a9d0000000000000000000000000000000000000000000000000000000007bffffffffffffffffffffffffffffffffffffffffffffffffffffffff19166020820180517bffffffffffffffffffffffffffffffffffffffffffffffffffffffff8381831617835250505050611f8b565b5050565b600081600001549050919050565b8173ffffffffffffffffffffffffffffffffffffffff168373ffffffffffffffffffffffffffffffffffffffff161415611a6e576040517f08c379a0000000000000000000000000000000000000000000000000000000008152600401611a6590612efd565b60405180910390fd5b80600560008573ffffffffffffffffffffffffffffffffffffffff1673ffffffffffffffffffffffffffffffffffffffff16815260200190815260200160002060008473ffffffffffffffffffffffffffffffffffffffff1673ffffffffffffffffffffffffffffffffffffffff16815260200190815260200160002060006101000a81548160ff0219169083151502179055508173ffffffffffffffffffffffffffffffffffffffff168373ffffffffffffffffffffffffffffffffffffffff167f17307eab39ab6107e8899845ad3d59bd9653f200f220920489ca2b5937696c3183604051611b5f9190612dd2565b60405180910390a3505050565b611b7784848461150e565b611b8384848484611fbe565b611bc2576040517f08c379a0000000000000000000000000000000000000000000000000000000008152600401611bb990612e7d565b60405180910390fd5b50505050565b606060405180602001604052806000815250905090565b6060611bea82611303565b611c29576040517f08c379a0000000000000000000000000000000000000000000000000000000008152600401611c209061301d565b60405180910390fd5b6000611c33611bc8565b90506000815111611c535760405180602001604052806000815250611c7e565b80611c5d84611775565b604051602001611c6e929190612bf1565b6040516020818303038152906040525b915050919050565b60606000825190506000811415611caf5760405180602001604052806000815250915050611e3f565b60006003600283611cc09190613146565b611cca919061319c565b6004611cd691906131cd565b90506000602082611ce79190613146565b67ffffffffffffffff811115611d26577f4e487b7100000000000000000000000000000000000000000000000000000000600052604160045260246000fd5b6040519080825280601f01601f191660200182016040528015611d585781602001600182028036833780820191505090505b5090506000604051806060016040528060408152602001613b75604091399050600181016020830160005b86811015611dfc5760038101905062ffffff818a015116603f8160121c168401518060081b905060ff603f83600c1c1686015116810190508060081b905060ff603f8360061c1686015116810190508060081b905060ff603f831686015116810190508060e01b90508084526004840193505050611d83565b506003860660018114611e165760028114611e2657611e31565b613d3d60f01b6002830352611e31565b603d60f81b60018303525b508484525050819450505050505b919050565b611e5e828260405180602001604052806000815250612155565b5050565b611e6b82611303565b611eaa576040517f08c379a0000000000000000000000000000000000000000000000000000000008152600401611ea190612f9d565b60405180910390fd5b80600660008481526020019081526020016000209080519060200190611ed19291906123ad565b505050565b611f70838383604051602401611eee93929190612e3f565b6040516020818303038152906040527fe3849f79000000000000000000000000000000000000000000000000000000007bffffffffffffffffffffffffffffffffffffffffffffffffffffffff19166020820180517bffffffffffffffffffffffffffffffffffffffffffffffffffffffff8381831617835250505050611f8b565b505050565b6001816000016000828254019250508190555050565b60008151905060006a636f6e736f6c652e6c6f679050602083016000808483855afa5050505050565b505050565b505050565b6000611fdf8473ffffffffffffffffffffffffffffffffffffffff166121b0565b15612148578373ffffffffffffffffffffffffffffffffffffffff1663150b7a0261200861136f565b8786866040518563ffffffff1660e01b815260040161202a9493929190612d5d565b602060405180830381600087803b15801561204457600080fd5b505af192505050801561207557506040513d601f19601f8201168201806040525081019061207291906126f1565b60015b6120f8573d80600081146120a5576040519150601f19603f3d011682016040523d82523d6000602084013e6120aa565b606091505b506000815114156120f0576040517f08c379a00000000000000000000000000000000000000000000000000000000081526004016120e790612e7d565b60405180910390fd5b805181602001fd5b63150b7a0260e01b7bffffffffffffffffffffffffffffffffffffffffffffffffffffffff1916817bffffffffffffffffffffffffffffffffffffffffffffffffffffffff19161491505061214d565b600190505b949350505050565b61215f83836121d3565b61216c6000848484611fbe565b6121ab576040517f08c379a00000000000000000000000000000000000000000000000000000000081526004016121a290612e7d565b60405180910390fd5b505050565b6000808273ffffffffffffffffffffffffffffffffffffffff163b119050919050565b600073ffffffffffffffffffffffffffffffffffffffff168273ffffffffffffffffffffffffffffffffffffffff161415612243576040517f08c379a000000000000000000000000000000000000000000000000000000000815260040161223a90612fbd565b60405180910390fd5b61224c81611303565b1561228c576040517f08c379a000000000000000000000000000000000000000000000000000000000815260040161228390612ebd565b60405180910390fd5b61229860008383611fb4565b6001600360008473ffffffffffffffffffffffffffffffffffffffff1673ffffffffffffffffffffffffffffffffffffffff16815260200190815260200160002060008282546122e89190613146565b92505081905550816002600083815260200190815260200160002060006101000a81548173ffffffffffffffffffffffffffffffffffffffff021916908373ffffffffffffffffffffffffffffffffffffffff160217905550808273ffffffffffffffffffffffffffffffffffffffff16600073ffffffffffffffffffffffffffffffffffffffff167fddf252ad1be2c89b69c2b068fc378daa952ba7f163c4a11628f55a4df523b3ef60405160405180910390a46123a960008383611fb9565b5050565b8280546123b990613311565b90600052602060002090601f0160209004810192826123db5760008555612422565b82601f106123f457805160ff1916838001178555612422565b82800160010185558215612422579182015b82811115612421578251825591602001919060010190612406565b5b50905061242f9190612433565b5090565b5b8082111561244c576000816000905550600101612434565b5090565b600061246361245e846130bd565b613098565b90508281526020810184848401111561247b57600080fd5b6124868482856132cf565b509392505050565b60008135905061249d81613af3565b92915050565b6000813590506124b281613b0a565b92915050565b6000813590506124c781613b21565b92915050565b6000815190506124dc81613b21565b92915050565b600082601f8301126124f357600080fd5b8135612503848260208601612450565b91505092915050565b60008135905061251b81613b38565b92915050565b60006020828403121561253357600080fd5b60006125418482850161248e565b91505092915050565b6000806040838503121561255d57600080fd5b600061256b8582860161248e565b925050602061257c8582860161248e565b9150509250929050565b60008060006060848603121561259b57600080fd5b60006125a98682870161248e565b93505060206125ba8682870161248e565b92505060406125cb8682870161250c565b9150509250925092565b600080600080608085870312156125eb57600080fd5b60006125f98782880161248e565b945050602061260a8782880161248e565b935050604061261b8782880161250c565b925050606085013567ffffffffffffffff81111561263857600080fd5b612644878288016124e2565b91505092959194509250565b6000806040838503121561266357600080fd5b60006126718582860161248e565b9250506020612682858286016124a3565b9150509250929050565b6000806040838503121561269f57600080fd5b60006126ad8582860161248e565b92505060206126be8582860161250c565b9150509250929050565b6000602082840312156126da57600080fd5b60006126e8848285016124b8565b91505092915050565b60006020828403121561270357600080fd5b6000612711848285016124cd565b91505092915050565b60006020828403121561272c57600080fd5b600061273a8482850161250c565b91505092915050565b61274c8161325b565b82525050565b61275b8161326d565b82525050565b600061276c82613103565b6127768185613119565b93506127868185602086016132de565b61278f816134aa565b840191505092915050565b60006127a58261310e565b6127af818561312a565b93506127bf8185602086016132de565b6127c8816134aa565b840191505092915050565b60006127de8261310e565b6127e8818561313b565b93506127f88185602086016132de565b80840191505092915050565b6000815461281181613311565b61281b818661313b565b9450600182166000811461283657600181146128475761287a565b60ff1983168652818601935061287a565b612850856130ee565b60005b8381101561287257815481890152600182019150602081019050612853565b838801955050505b50505092915050565b600061289060328361312a565b915061289b826134bb565b604082019050919050565b60006128b360258361312a565b91506128be8261350a565b604082019050919050565b60006128d6601c8361312a565b91506128e182613559565b602082019050919050565b60006128f9600a8361313b565b915061290482613582565b600a82019050919050565b600061291c60248361312a565b9150612927826135ab565b604082019050919050565b600061293f60198361312a565b915061294a826135fa565b602082019050919050565b600061296260638361313b565b915061296d82613623565b606382019050919050565b6000612985600b8361313b565b9150612990826136be565b600b82019050919050565b60006129a8602c8361312a565b91506129b3826136e7565b604082019050919050565b60006129cb600d8361313b565b91506129d682613736565b600d82019050919050565b60006129ee60388361312a565b91506129f98261375f565b604082019050919050565b6000612a11602a8361312a565b9150612a1c826137ae565b604082019050919050565b6000612a3460298361312a565b9150612a3f826137fd565b604082019050919050565b6000612a57602e8361312a565b9150612a628261384c565b604082019050919050565b6000612a7a60028361313b565b9150612a858261389b565b600282019050919050565b6000612a9d60208361312a565b9150612aa8826138c4565b602082019050919050565b6000612ac060318361312a565b9150612acb826138ed565b604082019050919050565b6000612ae3602c8361312a565b9150612aee8261393c565b604082019050919050565b6000612b06602f8361312a565b9150612b118261398b565b604082019050919050565b6000612b29600a8361313b565b9150612b34826139da565b600a82019050919050565b6000612b4c60218361312a565b9150612b5782613a03565b604082019050919050565b6000612b6f600a8361313b565b9150612b7a82613a52565b600a82019050919050565b6000612b92601d8361313b565b9150612b9d82613a7b565b601d82019050919050565b6000612bb560318361312a565b9150612bc082613aa4565b604082019050919050565b612bd4816132c5565b82525050565b6000612be682846127d3565b915081905092915050565b6000612bfd82856127d3565b9150612c0982846127d3565b91508190509392505050565b6000612c2182866127d3565b9150612c2d82856127d3565b9150612c3982846127d3565b9150819050949350505050565b6000612c528285612804565b9150612c5e82846127d3565b9150612c69826129be565b91508190509392505050565b6000612c80826128ec565b9150612c8c82846127d3565b915081905092915050565b6000612ca282612978565b9150612cae82846127d3565b915081905092915050565b6000612cc482612b1c565b9150612cd082856127d3565b9150612cdb82612955565b9150612ce782846127d3565b9150612cf282612a6d565b91508190509392505050565b6000612d0982612b62565b9150612d1582846127d3565b915081905092915050565b6000612d2b82612b85565b9150612d3782846127d3565b915081905092915050565b6000602082019050612d576000830184612743565b92915050565b6000608082019050612d726000830187612743565b612d7f6020830186612743565b612d8c6040830185612bcb565b8181036060830152612d9e8184612761565b905095945050505050565b6000604082019050612dbe6000830185612743565b612dcb6020830184612bcb565b9392505050565b6000602082019050612de76000830184612752565b92915050565b60006020820190508181036000830152612e07818461279a565b905092915050565b60006040820190508181036000830152612e29818561279a565b9050612e386020830184612bcb565b9392505050565b60006060820190508181036000830152612e59818661279a565b9050612e686020830185612bcb565b612e756040830184612743565b949350505050565b60006020820190508181036000830152612e9681612883565b9050919050565b60006020820190508181036000830152612eb6816128a6565b9050919050565b60006020820190508181036000830152612ed6816128c9565b9050919050565b60006020820190508181036000830152612ef68161290f565b9050919050565b60006020820190508181036000830152612f1681612932565b9050919050565b60006020820190508181036000830152612f368161299b565b9050919050565b60006020820190508181036000830152612f56816129e1565b9050919050565b60006020820190508181036000830152612f7681612a04565b9050919050565b60006020820190508181036000830152612f9681612a27565b9050919050565b60006020820190508181036000830152612fb681612a4a565b9050919050565b60006020820190508181036000830152612fd681612a90565b9050919050565b60006020820190508181036000830152612ff681612ab3565b9050919050565b6000602082019050818103600083015261301681612ad6565b9050919050565b6000602082019050818103600083015261303681612af9565b9050919050565b6000602082019050818103600083015261305681612b3f565b9050919050565b6000602082019050818103600083015261307681612ba8565b9050919050565b60006020820190506130926000830184612bcb565b92915050565b60006130a26130b3565b90506130ae8282613343565b919050565b6000604051905090565b600067ffffffffffffffff8211156130d8576130d761347b565b5b6130e1826134aa565b9050602081019050919050565b60008190508160005260206000209050919050565b600081519050919050565b600081519050919050565b600082825260208201905092915050565b600082825260208201905092915050565b600081905092915050565b6000613151826132c5565b915061315c836132c5565b9250827fffffffffffffffffffffffffffffffffffffffffffffffffffffffffffffffff03821115613191576131906133ee565b5b828201905092915050565b60006131a7826132c5565b91506131b2836132c5565b9250826131c2576131c161341d565b5b828204905092915050565b60006131d8826132c5565b91506131e3836132c5565b9250817fffffffffffffffffffffffffffffffffffffffffffffffffffffffffffffffff048311821515161561321c5761321b6133ee565b5b828202905092915050565b6000613232826132c5565b915061323d836132c5565b9250828210156132505761324f6133ee565b5b828203905092915050565b6000613266826132a5565b9050919050565b60008115159050919050565b60007fffffffff0000000000000000000000000000000000000000000000000000000082169050919050565b600073ffffffffffffffffffffffffffffffffffffffff82169050919050565b6000819050919050565b82818337600083830152505050565b60005b838110156132fc5780820151818401526020810190506132e1565b8381111561330b576000848401525b50505050565b6000600282049050600182168061332957607f821691505b6020821081141561333d5761333c61344c565b5b50919050565b61334c826134aa565b810181811067ffffffffffffffff8211171561336b5761336a61347b565b5b80604052505050565b600061337f826132c5565b91507fffffffffffffffffffffffffffffffffffffffffffffffffffffffffffffffff8214156133b2576133b16133ee565b5b600182019050919050565b60006133c8826132c5565b91506133d3836132c5565b9250826133e3576133e261341d565b5b828206905092915050565b7f4e487b7100000000000000000000000000000000000000000000000000000000600052601160045260246000fd5b7f4e487b7100000000000000000000000000000000000000000000000000000000600052601260045260246000fd5b7f4e487b7100000000000000000000000000000000000000000000000000000000600052602260045260246000fd5b7f4e487b7100000000000000000000000000000000000000000000000000000000600052604160045260246000fd5b6000601f19601f8301169050919050565b7f4552433732313a207472616e7366657220746f206e6f6e20455243373231526560008201527f63656976657220696d706c656d656e7465720000000000000000000000000000602082015250565b7f4552433732313a207472616e736665722066726f6d20696e636f72726563742060008201527f6f776e6572000000000000000000000000000000000000000000000000000000602082015250565b7f4552433732313a20746f6b656e20616c7265616479206d696e74656400000000600082015250565b7f54484952445f574f524400000000000000000000000000000000000000000000600082015250565b7f4552433732313a207472616e7366657220746f20746865207a65726f2061646460008201527f7265737300000000000000000000000000000000000000000000000000000000602082015250565b7f4552433732313a20617070726f766520746f2063616c6c657200000000000000600082015250565b7f222c20226465736372697074696f6e223a20224120686967686c79206163636c60008201527f61696d656420636f6c6c656374696f6e206f6620737175617265732e222c202260208201527f696d616765223a2022646174613a696d6167652f7376672b786d6c3b6261736560408201527f36342c0000000000000000000000000000000000000000000000000000000000606082015250565b7f5345434f4e445f574f5244000000000000000000000000000000000000000000600082015250565b7f4552433732313a206f70657261746f7220717565727920666f72206e6f6e657860008201527f697374656e7420746f6b656e0000000000000000000000000000000000000000602082015250565b7f3c2f746578743e3c2f7376673e00000000000000000000000000000000000000600082015250565b7f4552433732313a20617070726f76652063616c6c6572206973206e6f74206f7760008201527f6e6572206e6f7220617070726f76656420666f7220616c6c0000000000000000602082015250565b7f4552433732313a2062616c616e636520717565727920666f7220746865207a6560008201527f726f206164647265737300000000000000000000000000000000000000000000602082015250565b7f4552433732313a206f776e657220717565727920666f72206e6f6e657869737460008201527f656e7420746f6b656e0000000000000000000000000000000000000000000000602082015250565b7f45524337323155524953746f726167653a2055524920736574206f66206e6f6e60008201527f6578697374656e7420746f6b656e000000000000000000000000000000000000602082015250565b7f227d000000000000000000000000000000000000000000000000000000000000600082015250565b7f4552433732313a206d696e7420746f20746865207a65726f2061646472657373600082015250565b7f45524337323155524953746f726167653a2055524920717565727920666f722060008201527f6e6f6e6578697374656e7420746f6b656e000000000000000000000000000000602082015250565b7f4552433732313a20617070726f76656420717565727920666f72206e6f6e657860008201527f697374656e7420746f6b656e0000000000000000000000000000000000000000602082015250565b7f4552433732314d657461646174613a2055524920717565727920666f72206e6f60008201527f6e6578697374656e7420746f6b656e0000000000000000000000000000000000602082015250565b7f7b226e616d65223a202200000000000000000000000000000000000000000000600082015250565b7f4552433732313a20617070726f76616c20746f2063757272656e74206f776e6560008201527f7200000000000000000000000000000000000000000000000000000000000000602082015250565b7f46495253545f574f524400000000000000000000000000000000000000000000600082015250565b7f646174613a6170706c69636174696f6e2f6a736f6e3b6261736536342c000000600082015250565b7f4552433732313a207472616e736665722063616c6c6572206973206e6f74206f60008201527f776e6572206e6f7220617070726f766564000000000000000000000000000000602082015250565b613afc8161325b565b8114613b0757600080fd5b50565b613b138161326d565b8114613b1e57600080fd5b50565b613b2a81613279565b8114613b3557600080fd5b50565b613b41816132c5565b8114613b4c57600080fd5b5056fe416e204e465420772f20494420257320686173206265656e206d696e74656420746f2025734142434445464748494a4b4c4d4e4f505152535455565758595a6162636465666768696a6b6c6d6e6f707172737475767778797a303132333435363738392b2fa264697066735822122011aaf6a77d6d7e09be8dfc30227bfe7b77b2b173c712455a9e2b6634aedf0dfd64736f6c634300080400333c73766720786d6c6e733d27687474703a2f2f7777772e77332e6f72672f323030302f73766727207072657365727665417370656374526174696f3d27784d696e594d696e206d656574272076696577426f783d273020302033353020333530273e3c7374796c653e2e62617365207b2066696c6c3a2077686974653b20666f6e742d66616d696c793a2073657269663b20666f6e742d73697a653a20323470783b207d3c2f7374796c653e3c726563742077696474683d273130302527206865696768743d2731303025272066696c6c3d27626c61636b27202f3e3c7465787420783d273530252720793d273530252720636c6173733d27626173652720646f6d696e616e742d626173656c696e653d276d6964646c652720746578742d616e63686f723d276d6964646c65273e",
  "linkReferences": {},
  "deployedLinkReferences": {}
}